:100000001DC037C036C035C034C033C0F3C031C0A6
:1000100030C090C02EC02DC02CC02BC02AC029C01B
:1000200028C027C026C037C054C050C04CC048C0EC
:1000300044C040C03CC038C034C030C011241FBED2
:10004000CFE5D4E0DEBFCDBF10E0A0E6B0E0ECE449
:10005000F3E002C005900D92A236B107D9F710E087
:10006000A2E6B0E001C01D92AE36B107E1F70DD1B6
:100070006CC1C6CF8B3048F4E82FFF27EB30F10579
:1000800038F0662321F0909808958DEF82BB089593
:10009000ED5EFF4F099483E082BBF3CF8FEF82BB0D
:1000A000F0CF89E082BBEDCF81E082BBEACF8FE168
:1000B00082BBE7CF81E482BBE4CF89E482BBE1CF9E
:1000C00089E982BBDECF8DE082BBDBCF85E282BBDC
:1000D000D8CF8FE982BBD5CFCF93DF939C0187E246
:1000E0002031380720F521153105F9F0C0E0D0E0C6
:1000F000EC2FFF27C9016AE070E013D1E659FF4FEA
:100100008083C9016AE070E00CD19B012196672BC6
:1001100079F7C43060F48C2FE82FFF27E659FF4FA2
:1001200010828F5F8430C0F302C080E0F5CFDF9192
:10013000CF9108951F920F920FB60F9211242F9313
:100140003F934F935F936F937F938F939F93AF935F
:10015000BF93EF93FF93809169008330A1F18F5F8C
:100160008093690080916900E82FFF2781E090E08B
:100170000E2E02C0880F991F0A94E2F7809585BB66
:1001800080916700882379F060E08AE073DF8091D6
:1001900060008823F1F0809168008F5F8093680091
:1001A0008031B9F406C0E659FF4F808160E062DF1C
:1001B000EECF1092680090E080916700882331F0C4
:1001C0009093670006C010926900CCCF91E09093A5
:1001D0006700FF91EF91BF91AF919F918F917F91B8
:1001E0006F915F914F913F912F910F900FBE0F90A4
:1001F0001F9018951F920F920FB60F9211242F93F4
:100200008F939F93809162009091630001969093E9
:100210006300809362008091620090916300885E29
:10022000934009F5809164008F5F80936400109281
:10023000630010926200809164008C3361F08091C1
:1002400065008C3381F4809166008F5F8093660037
:100250001092650008C0809165008F5F80936500F3
:1002600010926400ECCF9F918F912F910F900FBE51
:100270000F901F90189520E0E0E0F0E0CF0101978B
:10028000F1F72F5F2A30D1F70895CF93DF9383B72B
:10029000846083BF89B7816089BF12BE84B38F60D9
:1002A00084BB8EE085BB8FEF81BB82BB8EB5887F20
:1002B0008EBD8AEF90E09BBD8ABD89B7806189BF02
:1002C0007894C0E0D0E0809166003091650024E62B
:1002D000829FC0011124830F911DFEDEB2990AC0D6
:1002E00010926300109262001092640010926500F8
:1002F00010926600B19906C08EB5887F8EBD81E0F0
:1003000080936000B09906C08BE08EBD10926000B3
:1003100010926700CE010197F1F7CE010197F1F736
:10032000D2CFAA1BBB1B51E107C0AA1FBB1FA61738
:10033000B70710F0A61BB70B881F991F5A95A9F78E
:0C03400080959095BC01CD010895FFCF81
:02034C000100AE
:00000001FF
